:10111900456E7465722070617373776F72640043F2
:101129006F7272656374004261636B20616E642043
:10113900656E7465720050617373776F72640041F4
:101149006464206E65772070617373776F726400D1
:1011590044656C65746520616C6C00436865636BFC
:10116900696E6720454550524F4D0046756C6C209D
:101179006D656D6F727900496E636F727265637424
:011189000065
:100B5C00E4F522F52FF532F533F534F53512145B47
:100B6C007D02E4FF1212C27D027F011212C27D02CD
:100B7C007F021212C27D027F031212C27D027F0419
:100B8C001212C27D027F051212C27BFF7A117919F3
:100B9C00E4FDFF120E34E4F557121001E5596039EB
:100BAC00E5582430F536052FE52F64017003121437
:100BBC00927F647E001213C274232531F8A658E488
:100BCC00F5597FC01213FBE53624D0FBE434FFFA51
:090BDC00E4FDAF311213A4053150
:100BE500E4FF12118A8F22EF640170081531FDAF01
:100BF50031120000E52264026003020E1BF5571254
:100C05001492E4F530C3E530941E7480948040035B
:100C1500020E00AF30121264E53075F00684AEF0B6
:100C250074292EF8A60774232EF8E6FF74292EF8EA
:100C3500E66F6003020DFB0557E557640660030286
:100C45000DFB7BFF7A117928FDFF120E34755A06CC
:100C5500E55A64066003020DFBE522640170030298
:090C65000DFB121001E559603984
:100C6E00E5582430F536052FE52F64017003121474
:100C7E00927F647E001213C274232531F8A658E4C5
:100C8E00F5597FC01213FBE53624D0FBE434FFFA8E
:090C9E00E4FDAF311213A405318D
:100CA700E4FF12118A8F22EF6401702A7BFF7A1109
:100CB7007930FDFF120E347BFF7A11793F7D01E415
:100CC700FF120E34E4F557755ABAF5317FD07E0717
:100CD7001213C2121492E522640270237BFF7A1169
:100CE7007948FDFF120E34AB35AA347D017F01121E
:100CF70013A47FD07E071213C2121492E4F531E5D4
:100D07002264037037F531C3E531941D74809480F4
:100D1700500B7DFFAF311212C2053180EA121492D7
:100D2700E4F531F534F5357BFF7A117959FDFF127A
:100D37000E347FE87E031213C2121492E522640474
:100D47006003020C550535E53570020534C394057B
:100D5700E534648094804006753400753505753038
:0C0D670006C3E530941E74809480505E3A
:100D7300AF301212648F367BFF7A117964E4FDFF82
:100D8300120E34AB35AA347D01E4FF1213A4E53609
:100D9300FB7A007D017F051213A47FF47E011213F9
:100DA300C2E536F47020F531C3E5319406748094BE
:100DB30080501BE5302531FF74232531F8E6FD1201
:0C0DC30012C2053180E274062530F530C4
:100DCF008097C3E530941E74809480400F12149264
:100DDF007BFF7A117974E4FDFF120E347FE87E03F6
:100DEF001213C2E4F531121492020C550530020CA5
:100DFF000AE55764066015E5226401600F7BFF7AF0
:100E0F00117980E4FDFF120E34E4F531E52264031D
:100E1F006003020BA27FA07E0F1213C2121492E482
:050E2F00F531020BA2E9
:1010010075900FAF90EF640F700302108C12129461
:10101100AF90EF640F607475590175900FAF90EF49
:1010210024F5601024FE601114601324077012E48B
:10103100F558800D75580180087558028003755860
:10104100037590F0121294AF90EF2450600C24E0DD
:10105100600C24F0600C2470800E74048006740807
:101061008002740C2558F558AF37EF3395E0FEC375
:10107100EF9432EE64809480500EAF90EF64F06094
:0B10810007121294053780E0E4F537F9
:01108C002241
:101294007F01EFD394007480948040217E26EED3A6
:1012A40094007480948040127D82EDD39400748005
:0D12B400948040031D80F31E80E41F80D550
:0112C100220A
:1012C2008F378D3812135D7FA01211D6121312AF11
:1012D200371211D6121312AF381211D6121312127C
:0912E20013E07F0A7E000213C232
:021264008F37C2
:10126600E4F53812135D7FA01211D6121312AF37B0
:101276001211D612131212135D7FA11211D6121378
:0D12860012E4FF1212208F381213E0AF386F
:011293002238
:10135D00D2A07F017E0012147FD2A17F017E0012E8
:10136D00147FC2A07F017E0012147FC2A17F017E77
:04137D000002147FD7
:1013E000C2A07F017E0012147FD2A17F017E001275
:0B13F000147FD2A07F017E0002147F5A
:10141600C2A1C2A07F017E0012147FD2A17F017EED
:071426000012147FC2A12295
:10142D00C2A1D2A07F017E0012147FD2A17F017EC6
:07143D000012147FC2A1227E
:10131200E4F539D2A17F01FE12147F30A013053902
:10132200D3E53994647480948040F01213E07F0115
:0513320022C2A17F00B2
:011337002293
:0211D6008F394F
:1011D800E4F53AC2A1F53AC3E53A940874809480DC
:1011E8005035E53954809400748094804004D2A02E
:1011F8008002C2A0E53925E0F5397F017E0012148E
:101208007FD2A17F017E0012147FC2A17F017E00E0
:0712180012147F053A80C0AB
:01121F0022AC
:021220008F3904
:10122200E4F53AF53BF53AC3E53A940874809480C4
:101232005021C2A17F017E0012147FD2A1E53B257D
:10124200E0F53B30A002053B7F017E0012147F05D2
:101252003A80D4E539700512142D8003121416AFAA
:011262003B50
:011263002268
:03144400011E0185
:10118A00EF6003751E01E51E6401702E30B109304F
:10119A00B00630B20320B3227FE87E0312147FE444
:1011AA00F51E20B1037F012220B0037F022220B264
:1011BA00037F032220B3127F042230B10C30B0091E
:0B11CA0030B20630B303751E017F0039
:0111D50022F7
:1014470011083F065B4F666D7D077F6F777C395EBE
:03145700797100A8
:060ED6008B198A1A891B2A
:100EDC00E4F51CED14F51DF51CC3E51C9408748099
:100EEC0094804003020F72E51CB40800504D900F23
:100EFC0001F8282873020F19020F1D020F21020F8F
:100F0C0025020F29020F31020F39020F41D2A480A2
:100F1C000ED2A48012D2A48016D2A4801AC2A4D25B
:100F2C00A3D2A28016C2A4D2A3C2A2800EC2A4C213
:100F3C00A3D2A28006C2A4C2A3C2A2C3E51C951D63
:100F4C00FFE49400AB19AA1AA91B8F82F583120F28
:100F5C008C2408F8E6F5907F647E0012147FE4F58B
:060F6C0090051C020EE5D9
:010F7200225C
:03149700256400C9
:1013FB00C2A6C2A5C2A78F807F017E001213C2D2E4
:0B140B00A77F017E001213C2C2A722BF
:0A133800AB44AA45A946120F73FF4B
:10134200D2A6C2A5C2A78F807F017E001213C2D28D
:0B135200A77F017E001213C2C2A72279
:10145B007F381213FB7F0C1213FB7F061213FB7FDB
:04146B00010213FB6C
:051492007F010213FBC5
:08148A00D2A61213FBC2A62238
:101381008B5B8A5C895DAB5BAA5CA95D120F73FF05
:10139100601012148A7401255DF55DE4355CF55C1D
:0313A10080E422C3
:080E34008F438B448A45894677
:100E3C00E4F547EDFF7E00D3940174809480400369
:100E4C00020ED5E543940F74809480507CC3EF94CC
:100E5C0001748094805039AB44AA45A946120F7393
:100E6C006067C374109543FFE547C39FE547500681
:100E7C00248025438004254324B0FF1213FB121356
:100E8C003874012546F546E43545F545054780C7D8
:100E9C00AB44AA45A946120F73602EC37410954338
:100EAC00FFE547C39FE547500624C0254380042532
:100EBC00432470FF1213FB12133874012546F546B8
:090ECC00E43545F545054780C7F2
:010ED50022FA
:10146F007546FF7547147548978E498F4A02085C79
:0813A4008F378D38AF03AE0254
:1013AC007B007A00793912146F7B007A007939ADA1
:0613BC0038AF37020E34C9
:0B147F00EF1FAC0670011E4C70F6223F
:1013C200D3EF9400EE940040147D6E7C00ED1D700E
:0D13D200011CED4C70F7EF1F70E61E80E36C
:0113DF0022EB
:0300000002108D5E
:0C108D00787FE4F6D8FD75815D0210D478
:100F7300BB010689828A83E0225002E722BBFE027C
:090F8300E32289828A83E49322AF
:100F8C00BB010CE58229F582E5833AF583E022501A
:100F9C0006E92582F8E622BBFE06E92582F8E22264
:0D0FAC00E58229F582E5833AF583E493227E
:10080000E5522446F8E6055222784330070278463E
:10081000E475F001120FCB020F732000EB7F2ED294
:10082000008018EF540F2490D43440D4FF30040BD0
:10083000EF24BFB41A0050032461FFE55360021592
:10084000530556E5567002055530070D7843E4759B
:10085000F001120FCBEF020FB90212EB7403D207B3
:100860008003E4C207F5528B438A448945E4F5537B
:10087000F555F556E55360077F2012083B80F57566
:1008800054FFC201C200C202C203C205C206C208AE
:10089000120809FF700D3007057F0012084CAF5693
:1008A000AE5522B4255FC2D5C204120809FF24D078
:1008B000B40A00501A75F00A785330D50508B6FF0F
:1008C0000106C6A426F620D5047002D20380D924DE
:1008D000CFB41A00EF5004C2E5D204020A4CD20190
:1008E00080C6D20080C0D20280BCD2D580BAD205E8
:1008F00080B47F2012083B2002077401B5530040EA
:10090000F1120800FF12083B020874D208D20680D8
:1009100095120800FB120800FA120800F94A4B7001
:1009200006791D7A0B7BFF20022EE553602A7E009C
:100930008E82758300120F8C60060EEE655470F087
:10094000C2D5EBC0E0EAC0E0E9C0E0EE120A93D005
:10095000E0F9D0E0FAD0E0FB120F73FF60AAEBC021
:10096000E0EAC0E0E9C0E012083BD0E02401F9D0A1
:10097000E03400FAD0E0FBE5540460DCD554D980C3
:10098000877BFF7A0A798FD202809C791080027966
:1009900008C206C2088008D2D5790A8004790AC242
:1009A000D5E554047002F554E4FAFDFEFF12080088
:1009B000FC7B08200113120800FD7B1030000A1296
:1009C0000800FE120800FF7B20EC3382D592D55040
:1009D00013C3E43000069FFFE49EFEE42001039D64
:1009E000FDE49CFCE4CBF8C201EC700CCFCECDCC86
:1009F000E824F8F870F38017C3EF33FFEE33FEED11
:100A000033FDEC33FCEB33FB994002FB0FD8E9EBF1
:100A1000300105F8D0E0C448B201C0E00AEC4D4E08
:100A20004F78207B0070C2EAB5540040BCC0E01291
:100A30000A95D0F0D0E0200104C4C0E0C4B201C0E7
:100A4000F0120824D0F0D5F0EB020874120FDB0985
:100A50001153098B5808E24C08DE42098F4F099761
:0F0A60004409974908F743099D550981460981C3
:100A6F00450981470B3D5008E62D08EA2E090D2B4D
:100A7F0008EE23090B200B262A08A64800000905BB
:100A8F003F3F3F00790AA2D5200314300509B91062
:100A9F00020404B9080104A2D52006025001042063
:100AAF0002689202B553005034C0E07F2030031922
:100ABF007F30A20272067205500F120AECC202C2F8
:100ACF0006C205C2087F30800F300503E9C0E0126F
:100ADF00083B300503D0E0F9D0E0B553CC30051713
:100AEF007F30B9100C12083B7F583004077F788095
:100AFF0003B9080312083B3002057F2D02083B7F24
:100B0F00202008F87F2B2006F322920280CF286E38
:100B1F00756C6C2900D2011208003001F8C20178FF
:100B2F005330D50108F60208A62D50434958120834
:100B3F00002403B405004001E4900B389312082CF5
:0D0B4F00743A12082CD20375530402098B6E
:10109900020B5CE493A3F8E493A34003F68001F206
:1010A90008DFF48029E493A3F85407240CC8C33358
:1010B900C4540F4420C8834004F456800146F6DF27
:1010C900E4800B0102040810204080901444E47E5F
:1010D900019360BCA3FF543F30E509541FFEE4931C
:1010E900A360010ECF54C025E060A840B8E493A3E3
:1010F900FAE493A3F8E493A3C8C582C8CAC583CA0E
:10110900F0A3C8C582C8CAC583CADFE9DEE780BEC5
:01145A000091
:100FB900BB010689828A83F0225002F722BBFE0117
:020FC900F32211
:100FCB00FAE6FB0808E6F925F0F618E6CA3AF62227
:100FDB00D083D082F8E4937012740193700DA3A3A5
:100FEB0093F8740193F5828883E4737402936860B9
:060FFB00EFA3A3A380DFB9
:1012EB00EFB40A07740D1212F6740A309811A8990C
:1012FB00B8130CC2983098FDA899C298B811F63063
:07130B0099FDC299F599223A
:00000001FF
